:100000000C9458000C9400000C9400000C94000018
:100010000C9400000C9400000C9400000C94000060
:100020000C9400000C9400000C9400000C94000050
:100030000C9400000C9400000C9400000C94000040
:100040000C94D1000C9400000C9400000C9400005F
:100050000C9400000C9400000C9400000C94000020
:100060000C9400000C9400007B00000000003F0690
:100070005B4F666D7D077F6F003973785C3F37712A
:100080006E7950385440761C3E776DFFBF86DBCFCB
:10009000E6EDFD87FFEF3F55675320807C5E6A10D9
:1000A0006300060003006800330008036E000000D0
:1000B000F894EE27EFBBF1E0F5BFE5BF8DE0A2E0DD
:1000C000BB27ED938A95E9F780E098E0A0E0B1E0E6
:1000D000ED930197E9F7E2EAF0E0859195910097B9
:1000E00061F0A591B59105901590BF01F0010590C3
:1000F0000D920197E1F7FB01F0CFE0E0EEBBEFEFEF
:10010000EDBFE8E0EEBFC0E0D3E00C9458011A93D5
:100110001A2F113021F44498439A459A09C012309D
:1001200021F44398449A459A03C0439844984598CB
:10013000BDC01A930A931A2F0A81013011F42B9A29
:1001400001C02B98113011F42C9A01C02C982D9AD3
:10015000429A19810881239608951A930A938D0172
:10016000E4E6F0E0E315F40538F0E3E1E09305039D
:10017000E4E1E093060310C0D801E4E6F0E010D11A
:10018000E0930503D801EAE0F0E00AD1E09306032A
:10019000D801EAE0F0E051D1E09307030991199109
:1001A00008950A921A92FA926A937A938A939A938A
:1001B000AA93BA93EA93FA93EFB7EA93289A299A03
:1001C0002A9A882029F4E0910503F0D02A9811C0DA
:1001D000E1E0E81529F4E0910603E8D0299809C088
:1001E000E0910703F0E0E85FFC4FE081EBB9882481
:1001F0002898A0E040D0DF01EAE0F0E0E7D0EC5939
:10020000FF4FDBD066277727EA0FFB1F681F791F98
:10021000E0930003F09301036093020370930303E0
:10022000E52DF62D31965E2E6F2E3197EC32A1E042
:10023000FA0798F055246624C0D0ECE2F1E060E0C3
:1002400070E0D7D03E2E4F2EE0E0E0930003E09325
:100250000103E0930203E0930303E991EFBFF991F7
:10026000E991B991A9919991899179916991F990BF
:100270001990099018951A931A2FE12FE06CE093CA
:100280007C0085E38A95F1F7E0917A00E064E093E1
:100290007A00E0917A00E071E1F3E0917A00E061A8
:1002A000E0937A00E0917800F09179001991089537
:1002B000E0E8E0936100E0E0E0936100EFE3E4B99F
:1002C000E7E0E5B9ECE3E7B9E0E0E8B9EFEFEAB978
:1002D000E0E0EBB9E4BDE3E0E5BDE0E0E6BDE7BDAD
:1002E000E8BDE0938000E0938100E0938500E09317
:1002F0008400E0938700E0938600E0938900E09318
:100300008800E0938B00E0938A00E093B600E093CE
:10031000B000E093B100E093B200E093B300E0934B
:10032000B400E1E0E0936E00E0E0E0936F00E09362
:100330007000E0936900EDBBE0936800E093C100BA
:10034000E0E8E0BFE0E0E0937F00E4E8E0937A00DB
:10035000E0E0E0937B00E0937E00ECBDE093BC0026
:100360007894E1E0EA93A1E0E4DEA32DB42DF5DE7C
:10037000E0EAF0E0E315F40510F4A1E00EC0ECE8CB
:10038000F0E03E164F0628F4E9E6F0E0E315F40548
:1003900008F002C0A2E001C0A0E0B9DEE6CFFFCFC6
:1003A00015D0DF01EAE0F0E048D00895F0E0E85F22
:1003B000FC4FE081EBB983940895A0910003B091C4
:1003C00001038091020390910303089500241124F6
:1003D00090E1AA0FBB1F001C111C0E1A1F0A18F473
:1003E0000E0E1F1E01C0A1609A9599F7FD01D00164
:1003F00008953F934F935F9300241124A00130E2AE
:10040000AA0FBB1F881F991F001C111C441F551FDA
:100410000E1A1F0A460B570B28F40E0E1F1E461FFE
:10042000571F01C0A1603A9559F7FD01BC01D001E9
:10043000CA015F914F913F910895C8DFFD01089572
:00000001FF
