:0A0000000C9458000C9400000C94BE
:10000A0000000C9400000C9400000C9400000C9466
:10001A0000000C9400000C9400000C9400000C9456
:10002A0000000C9400000C9400000C9400000C9446
:10003A0000000C9400000C94B8000C9400000C947E
:10004A0000000C9400000C9400000C9400000C9426
:10005A0000000C9400000C9400000C9400000000B6
:10006A00000000043F065B4F666D7D077F6F003915
:10007A0073785C3F37716E7950385440761C3E77FE
:10008A006DFFBF86DBCFE6EDFD87FFEF3F55675378
:10009A0020807C5E6A10630006000300680033005B
:1000AA0008036E000000F894EE27EFBBF1E0F5BFFD
:1000BA00E5BF8DE0A2E0BB27ED938A95E9F780E0E2
:1000CA0098E0A0E0B1E0ED930197E9F7E2EAF0E009
:1000DA0085919591009761F0A591B591059015903C
:1000EA00BF01F00105900D920197E1F7FB01F0CFF6
:1000FA00E0E0EEBBEFEFEDBFE8E0EEBFC0E0D3E03B
:10010A000C9447011A930A931A2F0A81013011F4A9
:10011A002B9A01C02B98113011F42C9A01C02C98FB
:10012A002D9A429A19810881239608951A931A2FB3
:10013A00E12FE06CE0937C0085E38A95F1F7E0918A
:10014A007A00E064E0937A00E0917A00E071E1F3EA
:10015A00E0917A00E061E0937A00E0917800F09112
:10016A007900199108950A921A92FA926A937A93E7
:10017A008A939A93AA93BA93EA93FA93EFB7EA9374
:10018A002497E0E0E883E983E6E9EA83E3E4EB83A2
:10019A001A9310E8289A299A2A9A772069F4E09102
:1001AA000503EDD016D1E170E13019F4EBB1E12B82
:1001BA00EBB973942A981CC0E1E0E71571F4E09159
:1001CA000603DDD0F595E795E170E13019F4EBB15E
:1001DA00E12BEBB9739429980BC0E0910703CFD0B8
:1001EA00E170E13019F4EBB1E12BEBB977242898EF
:1001FA00A0E04099A1E09ADF662777277DD1C7D092
:10020A00FDD1DF01CB01E0E0F0E060E874E444D224
:10021A00BED0A5D1C1D0A3D1E0930003F0930103CE
:10022A006093020370930303E52DF62D31965E2E3B
:10023A006F2E3197DF01BAD088279927E7D070D27D
:10024A0088F055246624B2D0A7D026D21CD13E2EDF
:10025A004F2EE0E0E0930003E0930103E0930203F2
:10026A00E093030318812596E991EFBFF991E9918B
:10027A00B991A9919991899179916991F990199076
:10028A00099018952497E0E8E0936100E0E0E09394
:10029A006100EFE3E4B9E7E0E5B9ECE3E7B9E0E0F0
:1002AA00E8B9EFEFEAB9E0E0EBB9E4BDE3E0E5BDB8
:1002BA00E0E0E6BDE7BDE8BDE0938000E0938100A1
:1002CA00E0938500E0938400E0938700E093860042
:1002DA00E0938900E0938800E0938B00E0938A0022
:1002EA00E093B600E093B000E093B100E093B2006F
:1002FA00E093B300E093B400E1E0E0936E00E0E045
:10030A00E0936F00E0937000E0936900EDBBE09327
:10031A006800E093C100E0E8E0BFE0E0E0937F001E
:10032A00E4E8E0937A00E0E0E0937B00E0937E006B
:10033A00ECBDE093BC007894E1E0EA93A1E0E2DE50
:10034A00439844984598A82DBB2702D0FFCFFFCFEA
:10035A001A930A938D01E4E6F0E02DD0E0930503A9
:10036A00D801EAE0F0E027D0E0930603D801EAE0FA
:10037A00F0E047D0E0930703099119910895F0E05E
:10038A00E85FFC4FE081EBB9E82DF0E00895A0E0CA
:10039A00B0E088EC92E40895A0910003B0910103C3
:1003AA0080910203909103032FD00895E981FA8185
:1003BA006B817C81089512D0DF01EAE0F0E021D060
:1003CA000895F09560957095E195FF4F6F4F7F4FB7
:1003DA000895F595E795F595E79508950024112474
:1003EA0090E1AA0FBB1F001C111C0E1A1F0A18F459
:1003FA000E0E1F1E01C0A1609A9599F7FD01D0014A
:10040A000895ECDFFD010895689401C0E89401D0D5
:10041A0074D0182E862F612D192E972F712D1B2E11
:10042A00BF2FF12D1A2EAE2FE12D0895552342F438
:10043A00503811F4E0FF04C03196691F791F6BF040
:10044A0050E8572711F45F93C8C05F3F31F0660F39
:10045A00000C57956795752F08955F9300200AF051
:10046A00C7C0C0C050E8192E1522880F991F9527BA
:10047A00550F879550E8072E0522660F771F7527B7
:10048A00550F67950895689401C0E8945F93F2DF69
:10049A00703818F07F3F08F4A0C056E1571BAAF441
:1004AA00519558300EF4593030F0EFEFFFEF6FEFFF
:1004BA007FE777F91AC077275523B9F0EE0FFF1FA8
:1004CA00661F771F5A95D1F710C07727583028F042
:1004DA00EF2FF62F672F5850F9CF552331F0769525
:1004EA006795F795E7955A95D1F700200AF469DFE1
:1004FA005F910895689401C0E89430976040704015
:10050A00B1F0002426F0772312F400945ADF172E54
:10051A007EE1112032F07A95EE0FFF1F661F111C43
:10052A00F9CFEF2FF62F612D5F938ADF5F91089540
:10053A004F93AF01FD01DA01AB01BC01CA01402DA5
:10054A00012C142E4F910895EA0FFB1F681F08957E
:10055A00E095F0956095EF5FFF4F6F4F08955F93B9
:10056A0081DF903839F1703821F1572F591B2BF15F
:10057A0012F4DEDFFACF583118F0AA27BB278827F2
:10058A00583028F0AB2FB82F88275850F9CF552369
:10059A0029F08695B795A7955A95D9F7502D5125E3
:1005AA0072F0D2DF38F46795F795E795739513F4EF
:1005BA001FC0BEDF45DF5F910895D8F7FBCFEA1B66
:1005CA00FB0B680B51F010F40094C2DF662392F320
:1005DA00EE0FFF1F661F7A95CBF7EE27FF27BF01A5
:1005EA005F910895EFEFFFEF6FE77FEF5F91089557
:1005FA00EFEFFFEF6FE77FE75F9108955F9332DFD9
:10060A00703859F3903849F301240894791F23F478
:10061A0024F300203AF3ECCF0F921F932F933F93CA
:10062A004F93112722279927689FA0018F9F302D6A
:10063A00410D591F6B9F300D411D591F8E9F27D0A9
:10064A00BF9F25D06A9F23D0BE9F1DD0AF9F1BD0CE
:10065A00AE9F110D291F391F491F591FE32FF42F70
:10066A00652F522F4F913F912F911F910F90662323
:10067A002AF0550FEE1FFF1F661F02C073954BF23B
:10068A00D5DE5F910895100D211D391F02C0200D7E
:10069A00311D491F591F08955F93E4DE703821F414
:1006AA0011200AF49FCFA4CF903809F496CF0124E1
:1006BA000894970B1BF4D4F30020F3CF792F1F93E0
:1006CA002F933F934F931124112722273327A901F0
:1006DA0090E2AE17BF078607410730F0AE1BBF0B8B
:1006EA00860B410B089401C08894551F221F331FA3
:1006FA00111CAA1FBB1F881F441F9A9551F7F901A5
:10070A00612D4F913F912F911F91662332F0550F22
:10071A00EE1FFF1F661F7A954BF288DE5F910895E0
:10072A0099239AF0772342F0971748F029F4AE17E5
:10073A00BF07860720F031F098948894089598941A
:10074A00089408951894889408957723C2F7971700
:10075A0098F3A9F7EA17FB07680788F399F3ECCF30
:00000001FF
